:020000040800F2
:10000000D00700208901000859180008CD17000802
:10001000551800088F0200080D19000800000000A4
:100020000000000000000000000000008918000827
:1000300093020008000000005D1800088B180008FB
:10004000A3010008A3010008A3010008A301000800
:10005000A3010008A3010008A3010008A3010008F0
:10006000A3010008A3010008A3010008A3010008E0
:10007000A3010008A3010008A3010008A3010008D0
:10008000A3010008A3010008A3010008A3010008C0
:10009000FD180008A3010008A3010008A30100083F
:1000A000A3010008A3010008A3010008A3010008A0
:1000B000A3010008A3010008A3010008A301000890
:1000C000A3010008A3010008A3010008A301000880
:1000D000A3010008A3010008A3010008A301000870
:1000E000A3010008A3010008A301000800F002F822
:1000F00000F03AF80AA090E8000C82448344AAF188
:100100000107DA4501D100F02FF8AFF2090EBAE885
:100110000F0013F0010F18BFFB1A43F0010318473B
:100120003822000058220000103A24BF78C878C155
:10013000FAD8520724BF30C830C144BF04680C60ED
:10014000704700000023002400250026103A28BF35
:1001500078C1FBD8520728BF30C148BF0B60704739
:100160001FB51FBD10B510BD00F058F81146FFF7C0
:10017000F7FF01F07FFC00F076F803B4FFF7F2FF21
:1001800003BC00F07DF8000009488047094800479B
:10019000FEE7FEE7FEE7FEE7FEE7FEE7FEE7FEE737
:1001A000FEE7FEE704480549054A064B7047000094
:1001B000F9180008ED000008D0010020D007002049
:1001C000D0030020D00300204FF0000200B51346FA
:1001D00094469646203922BFA0E80C50A0E80C5067
:1001E000B1F12001BFF4F7AF090728BFA0E80C5018
:1001F00048BF0CC05DF804EB890028BF40F8042B11
:1002000008BF704748BF20F8022B11F0804F18BF7D
:1002100000F8012B7047704770477047754600F033
:100220002BF8AE4605006946534620F00700854688
:1002300018B020B5FFF7B6FFBDE820404FF000062C
:100240004FF000074FF000084FF0000B21F00701BE
:10025000AC46ACE8C009ACE8C009ACE8C009ACE801
:10026000C0098D46704710B50446AFF300802046A4
:10027000BDE81040FFF781BF0048704770010020C3
:1002800001491820ABBEFEE726000200704700BF00
:10029000FEE7704772B600BFFEE710B5024692F85F
:1002A0002030012B01D0022B06D110684069084391
:1002B00014686061002010BD506A40F480205062D4
:1002C0000120F8E7F0B504460D461E4694F820706C
:1002D00020688368A86800B900E000BF012F01D042
:1002E000022F7DD103F0806030B903F0006018B9AF
:1002F00003F0805000287ED0C3F3016101208840C4
:100300003060A86860B9B5F800C0E86840EA4C5CA5
:10031000206800F5C07000EB0110C0F800C00FE0CD
:10032000D5E901C040EACC00D5F80CC040EA0C0089
:10033000D4F800C00CF5C07C0CEB011CCCF800001C
:10034000D5F810C0206800F5C07000EB0110C0F8AF
:1003500004C0287D01280ED1206800F5C07000EB94
:100360000110406840F4807C206800F5C07000EB0C
:100370000110C0F804C0D079000692F806C040EA27
:100380000C4092F805C040EA0C2092F804C040EA04
:100390000C00D4F800C00CF5C07C0CEB011CCCF8B0
:1003A0000C00D078000692F802C040EA0C4092F8A7
:1003B00001C040EA0C2092F800C040EA0C00D4F8DA
:1003C00000C00CF5C07C0CEB011CCCF808002068C8
:1003D00000F5C07000EB0110006840F0010C01E076
:1003E0000FE008E0206800F5C07000EB0110C0F8D5
:1003F00000C00020F0BD606A40F40010606201207F
:10040000F8E7606A40F4802060620120F2E7F0B50E
:1004100004460A46216894F82050012D01D0022D8F
:1004200074D1D1F8000240F00100C1F80002107D43
:1004300000F01F06012000FA06F3D1F81C029843D1
:10044000C1F81C02D069C8B9D1F80C029843C1F8B0
:100450000C02908880B2968940EA064601F5107039
:10046000576940F83760108880B2168940EA06461E
:1004700001F51070576900EBC7004660D06901288C
:1004800019D1D1F80C021843C1F80C02908880B23F
:10049000168840EA064601F51070576940F8376043
:1004A000908980B2168940EA064601F510705769B6
:1004B00000EBC7004660906928B9D1F80402984360
:1004C000C1F8040204E0D1F804021843C1F80402A0
:1004D000106928B9D1F814029843C1F8140204E055
:1004E000D1F814021843C1F81402106A012804D18B
:1004F000D1F81C021843C1F81C02D1F8000220F008
:100500000100C1F800020020F0BDFFE7606A40F47E
:10051000802060620120F7E7704770B5044694F8C8
:100520002050012D01D0022D7DD151B92068C06825
:1005300000F0030080B9606A40F40010606201209E
:1005400070BD2068006900F0030028B9606A40F4BB
:10055000001060620120F3E7206800F5D87000EB1E
:100560000110006800F004009060906840B92068B5
:1005700000F5D87000EB01100068400D106007E036
:10058000206800F5D87000EB01100068C0085060CA
:10059000206800F5D87000EB0110006800F0020040
:1005A000D060206800F5D87000EB0110406800F0C2
:1005B0000F00082802D30820106108E0206800F529
:1005C000D87000EB0110406800F00F001061206847
:1005D00000F5D87000EB0110406800F47F40000A7D
:1005E0009061206800F5D87000EB01104068000CA5
:1005F0005061206800F5D87000EB01108068187019
:10060000206800F5D87000EB0110806800F47F408E
:10061000000A5870206800F5D87000EB011080685F
:1006200000F47F0000E03CE0000C9870206800F5CA
:10063000D87000EB01108068000ED870206800F5BB
:10064000D87000EB0110C0681871206800F5D870F0
:1006500000EB0110C06800F47F40000A5871206868
:1006600000F5D87000EB0110C06800F47F00000CAA
:100670009871206800F5D87000EB0110C068000E7A
:10068000D87131B92068C06840F020002668F06059
:1006900005E02068006940F02000266830610020F5
:1006A0004EE7606A40F480206062012048E72DE94F
:1006B000F05F04460025206846692068D0F8049061
:1006C000206887682068D0F80CA02068D0F810B0A7
:1006D0002068D0F8188006F00100002855D007F0F7
:1006E0000100C0B101202168886007F0020018B144
:1006F000204600F09EFA0EE007F0040010B145F429
:10070000006508E007F0080010B145F4805502E0EC
:10071000204600F08DFA07F48070C8B14FF4807065
:100720002168886007F4007018B1204600F083FA51
:100730000EE007F4806010B145F4005508E007F4BE
:10074000006010B145F4804502E0204600F072FAE6
:1007500007F48030C8B14FF480302168886007F416
:10076000003018B1204600F068FA0EE007F480204F
:1007700010B145F4004508E007F4002010B145F43D
:10078000803502E0204600F057FA06F0080038B144
:100790000AF0100020B145F4007510202168C860EF
:1007A00006F0040040B10AF0080028B108202168D2
:1007B000C860204600F0A8F906F0020038B12068B1
:1007C000C06800F0030010B1204600F09FF906F069
:1007D000400038B10BF0100020B145F480651020C6
:1007E0002168086106F0200040B10BF0080028B134
:1007F000082021680861204600F0E8F906F01000A2
:1008000038B12068006900F0030010B1204600F004
:10081000DEF906F4003040B109F0100028B11020D4
:1008200021684860204600F0D3F906F4803040B1DA
:1008300009F0080028B1082021684860204600F02F
:10084000FDF906F4004088B309F0040078B306F41B
:10085000807020B108F0010008B145F0010506F4F0
:10086000007020B108F0020008B145F0020506F45E
:10087000806020B108F0040008B145F0040506F4DA
:100880000060A0B108F0700088B108F07000402846
:1008900017D006DC10280BD020280CD0302819D116
:1008A0000CE0502810D0602814D110E01DE019E0B1
:1008B00045F008050FE045F010050CE045F0200577
:1008C00009E045F0400506E045F0800503E045F409
:1008D000807500E000BF00BF2068806920F07000D4
:1008E000216888610420216848602DB1606A28432E
:1008F00060622046FFF710FEBDE8F09F70B5044629
:100900000CB9012070BD94F8200010B9204600F009
:10091000AFF82068006840F001002168086000F02E
:1009200033FB05460DE000F02FFB401B0A2808D9D9
:10093000606A40F400306062052084F820000120E5
:10094000E0E72068406800F001000028EBD0206854
:10095000006820F002002168086000F015FB0546E1
:100960000DE000F011FB401B0A2808D9606A40F432
:1009700000306062052084F820000120C2E7206872
:10098000406800F002000028EBD1207E012806D14B
:100990002068006840F080002168086005E0206859
:1009A000006820F0800021680860607E012806D180
:1009B0002068006840F040002168086005E0206879
:1009C000006820F0400021680860A07E012806D160
:1009D0002068006840F020002168086005E0206879
:1009E000006820F0200021680860E07E012806D120
:1009F0002068006820F010002168086005E0206889
:100A0000006840F0100021680860207F012806D1AE
:100A10002068006840F008002168086005E0206850
:100A2000006820F0080021680860607F012806D176
:100A30002068006840F004002168086005E0206834
:100A4000006820F0040021680860D4E9020108432E
:100A500021690843616908436168491E08432168A8
:100A6000C86100206062012084F82000002049E76E
:100A700010B586B0044600200290039004900590C3
:100A80001E492068884236D100BF1D48C06940F029
:100A900000701B49C8610846C06900F000700190F1
:100AA00000BF00BF00BF0846806940F004008861B5
:100AB0000846806900F00400019000BF00BFC81420
:100AC000029000200390049002A90E4800F0CCF898
:100AD0004FF480500290022003900320059002A959
:100AE000084800F0C1F800221146142000F0D2FAA4
:100AF000142000F0BFFA06B010BD000000640040F2
:100B000000100240000801407047000010B5044684
:100B10002949206888424DD1284B294A0021204686
:100B2000FFF7FBFC26480078401E26490870244841
:100B30000068A0F20120D0BB0846007800EB40011D
:100B400001EBC000204901EB8000816A1D4800785C
:100B500000EB400202EBC0001B4A02EB8000806AFF
:100B6000401C184A127802EB420303EBC202164BF8
:100B700003EB8202906232290CD81249097801EB0A
:100B8000410202EBC1011A4602EB8100214600F04E
:100B900065FF0BE00B49097801EB410202EBC10153
:100BA000094A02EB8100054900F01CFF01E0FFE764
:100BB00000BF00BF10BD00000064004028000020FE
:100BC0002C01002030000020BC000020704770473E
:100BD000704770B5044694F82000012822D1022005
:100BE00084F820002068006820F001002168086077
:100BF00000F0CAF905460DE000F0C6F9401B0A28CE
:100C000008D9606A40F400306062052084F8200052
:100C1000012070BD2068406800F001000028EBD181
:100C20006062F6E7606A40F4002060620120F0E74D
:100C300070477047704770477047704770470000B3
:100C400070B5044600F0A0F906462546681C10B1B0
:100C500004480078054400BF00F096F9801BA842C4
:100C6000FAD370BD3C0000202DE9F847034600226E
:100C700094466EE14FF0010808FA02F4D1F80080C2
:100C800008EA0400A0427DD1DFF8DCA2D1F804809C
:100C9000A8EB0A09D0453AD014DCB8F1030F50D0C4
:100CA00009DCB8F1000F31D0B8F1010F1CD0B8F158
:100CB000020F49D120E0B8F1110F18D0B8F1120F8E
:100CC00042D11EE0B9F5881F25D006DCB9F5803F7A
:100CD00020D0B9F5801F37D11AE0B9F5001F18D020
:100CE000B9F5041F30D117E0D1F80CC02DE0D1F8D0
:100CF0000C8008F1040C28E0D1F80C8008F1080CF5
:100D000023E0D1F80C8008F10C0C1EE000BF00BFFE
:100D100000BF00BF00BF00BFD1F80880B8F1000FCE
:100D200002D14FF0040C0BE0D1F80880B8F1010FAC
:100D300003D14FF0080C1C6102E04FF0080C5C611D
:100D400003E04FF0000C00E000BF00BFFF2801D817
:100D5000984601E003F104084646FF2802D84FEA0E
:100D6000820803E0A2F108084FEA88084746D6F84F
:100D700000804FF00F0909FA07F928EA09080CFA70
:100D800007F900E088E048EA0908C6F80080D1F8D1
:100D9000048008F08058B8F1805F7DD100BFDFF893
:100DA000CC81D8F8188048F00108DFF8C091C9F864
:100DB0001880C846D8F8188008F00108CDF80080DF
:100DC00000BF00BF4FEAB9384FEA920958F82950DE
:100DD0004FEA82784FEA18794FF00F0808FA09F8BD
:100DE00025EA0805DFF88881434502D14FF0000865
:100DF00016E0DFF88081434502D14FF001080FE093
:100E0000DFF87481434502D14FF0020808E0DFF8B3
:100E10006C81434502D14FF0030801E04FF0040814
:100E20004FEA82794FEA197908FA09F848EA050584
:100E3000DFF84C814FEA920948F82950D1F8048034
:100E400008F48018B8F5801F0AD1DFF83881D8F887
:100E5000008048EA0008DFF82C91C9F8008009E01A
:100E6000DFF82081D8F8008028EA0008DFF8149124
:100E7000C9F80080D1F8048008F40018B8F5001F04
:100E800010D1DFF8008108F10408D8F8008048EAA2
:100E90000008DFF8F09000E05AE009F10409C9F811
:100EA00000800DE0DFF8DC8008F10408D8F800804D
:100EB00028EA0008DFF8CC9009F10409C9F800809D
:100EC000D1F8048008F40038B8F5003F0ED1DFF8FF
:100ED000B480A8F10408D8F8008048EA0008DFF8D8
:100EE000A490A9F10409C9F800800DE0DFF894800E
:100EF000A8F10408D8F8008028EA0008DFF88490F8
:100F0000A9F10409C9F80080D1F8048008F48038F8
:100F1000B8F5803F0ED1DFF86C80A8F10808D8F84A
:100F2000008048EA0008DFF85C90A9F10809C9F8D8
:100F300000800DE0DFF84C80A8F10808D8F80080A8
:100F400028EA0008DFF83C90A9F10809C9F80080F8
:100F5000521CD1F8008028FA02F8B8F1000F7FF493
:100F600089AEBDE8F88700000000111000100240B3
:100F700000080140000C0140001001400014014035
:100F80000800014008040140014800687047000063
:100F900034000020034800680349097808440149E7
:100FA00008607047340000203C00002010B508485D
:100FB000006840F0100006490860032000F0A8F81F
:100FC0000F2000F007F800F02BF8002010BD000003
:100FD0000020024070B504460E4800784FF47A7144
:100FE000B1FBF0F00C490968B1FBF0F5284600F0C0
:100FF000D3FB08B1012070BD102C07D2002221467E
:10100000501E00F047F80548046001E00120F2E7B7
:101010000020F0E73C0000204000002038000020C5
:1010200008B500BF1148806940F001000F49886190
:101030000846806900F00100009000BF00BF00BFBB
:101040000846C06940F08050C8610846C06900F099
:101050008050009000BF00BF00BF0549486820F0E5
:10106000E06040F00070486000BF08BD0010024022
:101070000000014001460846002809DB00F01F037C
:1010800001229A4043099B0003F1E023C3F80021A9
:1010900000BF70472DE9F05F80460D4616460027D9
:1010A00000F036FC074639462A46334601F0070071
:1010B000C0F1070ABAF1040F02D94FF0040A01E0A7
:1010C000C0F1070AD14600F1040ABAF1070F02D2B3
:1010D0004FF0000A01E0A0F1030AD4464FF0010AE4
:1010E0000AFA09FAAAF1010A0AEA020A0AFA0CFA49
:1010F0004FF0010B0BFA0CFBABF1010B0BEA030BEE
:101100004AEA0B042146404600F00AFCBDE8F09F85
:1011100000BF00F00702064B19684FF6FF031940A5
:10112000044B0B4343EA0221014B196000BF704797
:101130000CED00E00000FA0570B504460D460CB950
:10114000012070BD5A48006800F00700A8420ED286
:101150005748006820F007002843554908600846B2
:10116000006800F00700A84201D00120E9E72078DC
:1011700000F0020002281DD1207800F004000428AD
:1011800005D14C48406840F4E0604A494860207806
:1011900000F00800082805D14648406840F4605037
:1011A000444948604348406820F0F000A168084383
:1011B00040494860207800F0010078B36068012859
:1011C00006D13C48006800F4003090B90120B8E72F
:1011D0006068022806D13748006800F0007040B906
:1011E0000120AEE73348006800F0020008B9012092
:1011F000A7E73048406820F00300616808432D49A4
:101200004860FFF7C1FE064609E0FFF7BDFE801B00
:1012100041F28831884202D9032092E707E025484D
:10122000406800F00C006168B0EB810FEDD1204800
:10123000006800F00700A8420ED91D48006820F0A1
:10124000070028431A4908600846006800F00700B4
:10125000A84201D0012074E7207800F0040004289F
:1012600007D11448406820F4E060E1680843114960
:101270004860207800F00800082808D10D48406830
:1012800020F46050216940EAC1000A49486000F03A
:1012900019F808494968C1F30311074A515CC8406D
:1012A0000649086006480068FFF794FE002048E7FA
:1012B00000200240001002404023000840000020AF
:1012C0003800002070B500210022002400230020F7
:1012D000134D696801F00C05F5B1042D02D0082DFD
:1012E00019D101E00F4819E00F4DC1F38346AB5D02
:1012F00001F4803555B10A4D6D68C5F340450B4E7C
:10130000725D084D5D43B5FBF2F402E0084D03FB4E
:1013100005F4204602E000BF024800BF00BF70BDD8
:101320000010024000127A002E2300083E2300081D
:1013300000093D00F8B504460CB90120F8BD20783D
:1013400000F00100002878D0F848406800F00C0058
:1013500004280CD0F548406800F00C00082811D192
:10136000F248406800F48030B0F5803F0AD1EF4881
:10137000006800F4003000285FD0606800285CD16D
:101380000120DBE700BF6068B0F5803F06D1E74889
:10139000006840F48030E549086028E0606858B98A
:1013A000E248006820F48030E049086008460068A0
:1013B00020F4802008601AE06068B0F5A02F0BD1FF
:1013C000DA48006840F48020D84908600846006880
:1013D00040F4803008600AE0D448006820F480308F
:1013E000D24908600846006820F48020086000BFE9
:1013F000606888B1FFF7C8FD054606E0FFF7C4FD49
:10140000401B642801D9032098E7C848006800F40D
:1014100000300028F2D010E0FFF7B6FD054606E0E8
:10142000FFF7B2FD401B642801D9032086E7BF48BF
:10143000006800F400300028F2D1207800F00200AB
:10144000022857D1B948406800F00C0050B1B748A5
:10145000406800F00C00082818D1B448406800F437
:10146000803098B9B148006800F0020020B12069CE
:10147000012801D0012061E7AC48006820F0F800A5
:10148000616940EAC100A949086033E02069E8B118
:101490000120A7490860FFF777FD054606E0FFF742
:1014A00073FD401B022801D9032047E79F480068CD
:1014B00000F002000028F2D09C48006820F0F800FC
:1014C000616940EAC1009949086013E00020984929
:1014D0000860FFF759FD054606E0FFF755FD401B84
:1014E000022801D9032029E79048006800F0020093
:1014F0000028F2D1207800F0080008282DD1A0693A
:10150000B8B101208B490860FFF73EFD054606E0B3
:10151000FFF73AFD401B022801D903200EE783485C
:10152000406A00F002000028F2D0012000F098F993
:1015300013E000207F490860FFF726FD054606E01E
:10154000FFF722FD401B022801D90320F6E6774869
:10155000406A00F002000028F2D1207800F0040078
:10156000042873D100277148C06900F0805070B919
:1015700000BF6E48C06940F080506C49C8610846A1
:10158000C06900F08050009000BF00BF01276A488A
:10159000006800F48070B0B96748006840F480705B
:1015A00065490860FFF7F0FC054606E0FFF7ECFC34
:1015B000401B642801D90320C0E65F48006800F49E
:1015C00080700028F2D000BFE068012806D157489B
:1015D000006A40F001005549086227E0E06858B908
:1015E0005248006A20F00100504908620846006A2B
:1015F00020F00400086219E0E06805280BD14B4890
:10160000006A40F00400494908620846006A40F058
:10161000010008620AE04548006A20F001004349E1
:1016200008620846006A20F00400086200BFE06813
:10163000A0B1FFF7A9FC054609E0FFF7A5FC401B98
:1016400041F28831884202D9032077E622E0374808
:10165000006A00F002000028EFD012E0FFF794FCCF
:10166000054608E0FFF790FC401B41F288318842B4
:1016700001D9032062E62D48006A00F0020000282C
:10168000F0D1012F05D12948C06920F080502749A9
:10169000C86100BFE069C8B32448406800F00C008E
:1016A000082860D0E069022848D100202049086657
:1016B000FFF76AFC054606E0FFF766FC401B0228C0
:1016C00001D903203AE61948006800F000700028AC
:1016D000F2D1206AB0F5803F07D11448406820F469
:1016E0000030A168084311494860D4E90801084363
:1016F0000E49496821F4741108430C4948600120DF
:101700000B490866FFF740FC054607E03DE0FFF7A0
:101710003BFC401B022801D903200FE60348006868
:1017200000F000700028F2D02FE00000001002400E
:1017300000004242800442420070004000201449F0
:101740000866FFF721FC054606E0FFF71DFC401B7D
:10175000022801D90320F1E50E48006800F000706E
:101760000028F2D111E0E069012800D1E6E509483E
:10177000466806F48031206A814204D106F4701173
:10178000606A814201D00120D8E50020D6E5000042
:10179000000042420010024070B504462546681E13
:1017A000B0F1807F01D301200FE0681E4FF0E021EF
:1017B00048610F214FF0FF3000F0B2F800204FF0E9
:1017C000E021886107200861002070BD00BFFEE7AE
:1017D00010B50E480E4908600420486000210C48EE
:1017E0008160C1604FF44031016109014161002114
:1017F0000176417681760121C1760021017741771A
:10180000FFF77CF808B1FEF745FD10BD006400400D
:101810004801002008B500BF0D48806940F0200055
:101820000B4988610846806900F02000009000BFE5
:1018300000BF00BF0846806940F004008861084688
:10184000806900F00400009000BF00BF08BD0000E8
:101850000010024000BFFEE700BFFEE77047000037
:1018600008B508490968C9084FF47A72B1FBF2F16A
:101870004143009100BF00BF00994A1E0092002919
:10188000F9D108BD40000020704710B5FFF782FB7A
:1018900010BD00B58FB0282105A8FEF795FC1421D6
:1018A0006846FEF791FC0120059000040690002098
:1018B00007900120099002200C90C1030D914FF474
:1018C000E0110E9105A8FFF735FD08B1FEF7E2FC27
:1018D0000F20009002200190002002904FF48060C1
:1018E00003900020049002216846FFF725FC08B110
:1018F000FEF7D0FC0FB000BD7047000010B50248E5
:10190000FEF7D5FE10BD00004801002000BFFEE735
:1019100002480068C0F30220704700000CED00E0B0
:1019200010B5002804DB0A07130E054A135406E01D
:101930000A07140E034A00F00F031B1FD45410BDF6
:1019400000E400E018ED00E070B504460D462946BD
:10195000206800F045FC00D2256085F00046304646
:10196000216800F03DFC02D285F00040206070BD8F
:1019700038B504464FF400700849086000208860BC
:10198000C86008200861200A054908704C706B4641
:101990000A4602490348FEF795FC38BD14010020B1
:1019A000200000204801002000B58BB001200990E4
:1019B00000200790012008900020019002900390E1
:1019C00004900690059001A90548FEF720FD044803
:1019D000FFF7FFF802210248FEF75FFC0BB000BDE5
:1019E0004801002002461089508148780B7840EA6F
:1019F00003201081C8788B7840EA032000B2508021
:101A00005088108048790B7940EA032000B26FF0CB
:101A1000040390FBF3F000B29080887990711089F4
:101A20005389C01AB0F5805F03DD1069401E106154
:101A300008E010895389C01A10F5805F02DA106936
:101A4000401C10611389106903EB40309389C01A60
:101A500050610148007C70472C010020044A5278F4
:101A6000034B1B7842EA032202810289828170477C
:101A7000280000201FB5FFF799FAFFF70AFFFFF7CC
:101A8000C9FEFFF7A5FEFFF78FFF4FF07C50002146
:101A90004FF07E52CDE900122D4B4FF4FA72CDE992
:101AA000021040F2DC512B4800F0DFF82A482B49A5
:101AB0004FF07E520023CDE90032CDE90210284BD1
:101AC0004FF47A7240F2DC51264800F0CEF83EE046
:101AD00004EB440101EBC401234A32F9210000F078
:101AE00053FA06462148314602681E4800F04EF877
:101AF000054600F02DFA1E49086008460068FFF709
:101B000037FF4FF47A70FFF79BF804EB440101EBC9
:101B1000C401154A02EB8101486900F035FA074615
:101B20004FF08C4100F01EF90646124900F08CFA85
:101B30000546114900F016F910490860104803687D
:101B40001048026810480168064800F099F8BFE79D
:101B50000000C841800000209A99993ECDCCCC3D30
:101B60000000964244000020BC0000200400002039
:101B70000000002000003B4300706045180000207A
:101B8000100000200C000020080000202DE9F0418A
:101B900004460E4615462661E5603146284600F0AB
:101BA00051FBA0610021E06A00F09EF911D00021F4
:101BB000A06900F015FB01D2A06902E0A06980F0E5
:101BC00000400746E16A00F00BFB02D20020BDE8AE
:101BD000F0810021206B00F087F910D00021A0696E
:101BE00000F0FEFA01D2A06902E0A06980F0004096
:101BF0000746216B00F0F4F901D20020E7E7A16964
:101C0000206800F021FAE061A169606800F01CFA28
:101C10000746216A00F038F82062D4E9051000F088
:101C200011FB0746A16800F00FFA6062A06B00F09C
:101C3000C3F90746394604F12000FFF785FED4E9D1
:101C4000070100F021F80746616A00F01DF8A06264
:101C5000606B00F0B1F90746394604F12800FFF740
:101C600073FEA0696061A06AB1E7F0B505ACF0CC85
:101C7000826341630363C462056046608760F0BDB0
:101C8000016042608360704790EA010F48BF81F0B5
:101C9000004100F1DE82421A3CBF801A89184FEAE7
:101CA000D0524FF07F4C1CEA410FA2EBD15318BF2A
:101CB0009CEA026F00F03B804FF0004C4CEA0020A1
:101CC0004CEA012121FA03FC10EB0C0C1ED202F1AC
:101CD000FF325FEA1C2040EBC25038BF70471CF057
:101CE0007F0F4FEA400C18BFBCF17F4F38BF7047E1
:101CF000C3F12003994008BF20F00100BCF17F4FE1
:101D000038BF7047A0F1C04000F065BA4FEA3C0010
:101D1000000A40EBC25028BF1CF0FF0F4FEA400CF6
:101D2000E6D018BFBCF17F4F38BF7047EAE79CEAA6
:101D3000026F05D010EA5C0F08BF00F0004070474A
:101D400010B500F002FA00BF64FBBE3E401058BF61
:101D5000C0F14040491058BFC1F140418142EFF30A
:101D6000008070474FF47F0C1CEAD0121EBF1CEAA3
:101D7000D11392EA0C0F93EA0C0F00F0858090EAE1
:101D8000010F48BF42F4807240F4000C41F400009F
:101D90002CF07F4120F07F4000B58142A2EB03028E
:101DA0000FF2081CACEB504EC0F100009EF800E0B2
:101DB0004FEA4E0E00FB0EFC38BF49004FEA2C1CC8
:101DC00002F5FA020CFB0EF34FEACE1E4FEA112C7D
:101DD0004FEAC1210EEB635E42EB22420EFB0CFC8C
:101DE0004FEA1C5300FB03114FEA112C4FEA01315B
:101DF0000EFB0CFC4FEADC4C00FB0C11C14228BF6F
:101E000009184CEB03335DF804EB10EB410143EB95
:101E1000C250B2F57C0F38BF704729D512F0F00FD1
:101E20001CBF00F1C04000F0004070470081828379
:101E30008485868788898B8C8D8E8F9192939596D9
:101E400097999A9C9D9FA0A2A3A5A7A8AAACAEB063
:101E5000B2B3B5B7B9BCBEC0C2C5C7C9CCCED1D468
:101E6000D7D9DCDFE2E6E9ECF0F3F7FAFE00000098
:101E70004FEA400C0CF1807CBCF17E4F28BF7047CC
:101E8000B0F1C04000F0A7B990EA010F0CEAD113FD
:101E900048BF42F48072624538BF634507D213F4ED
:101EA0007F0F16D080EA010000F00040704710B5A7
:101EB00000F04BF9097EFC3E00F005B880EA010015
:101EC00000F00040704780EA010000F0004000F0A0
:101ED00082B912F47F0F04BF0248704780EA010004
:101EE00000F079B90000C07F50EA010C00F11380C6
:101EF0001CF5000F58BFBCF5000F01D48842704795
:101F000007D710F5000F58BF11F5000F15D4884200
:101F10007047894270471CF5000F04D5BCF5000FCF
:101F2000F7D5814270474FF0807C1CEB400F38BFE3
:101F30001CEB410F01D28142704710B500F005F94A
:101F4000922449004FF000504FF08051FFF7FEBE41
:101F500041000B0ED3F19E0208D950F400034FEA62
:101F6000032323FA02F048BF4042704710B500F047
:101F7000ECF800BF49922480002070476FF00042C7
:101F800082EA20007047000010F0004148BF404244
:101F9000B0FA80F310FA03F2C3F19D030BD051EABB
:101FA000C35101EB1220530638BF704700F1010006
:101FB00008BF20F001007047B0FA80F310FA03F276
:101FC000C3F19D030AD0D90501EB1220530638BF97
:101FD000704700F1010008BF20F0010070470000C9
:101FE00050EA010C00F113801CF5000F58BFBCF53E
:101FF000000F01D48842704707D710F5000F58BF73
:1020000011F5000F15D488427047894270471CF5BE
:10201000000F04D5BCF5000FF7D5814270474FF093
:10202000807C1CEB400F38BF1CEB410F01D281427A
:10203000704710B500F089F8922449004FF0005025
:102040004FF08051FFF782BE4FF47F0C1CEAD01294
:102050001EBF1CEAD11392EA0C0F93EA0C0F00F09A
:10206000478090EA010F48BF42F480724FF0004C65
:102070004CEA00204CEA012102EB0302A0FB011311
:10208000A2F50002002918BF43F001035B0028BF3E
:102090004FEA330342EB22425FEA132C4CEBC2506F
:1020A0002EBFBCEB436FB2F57C0F70474FEA036C59
:1020B000BCF1004F08BF20F00100B2F57C0F38BF23
:1020C00070470BD582F0FF0212F5803FC8BF704702
:1020D00000F1C040D8BF00F00040704700F5000C90
:1020E0005FEA4C0C48BF7047B0F1C04000F073B8D5
:1020F00090EA010F0CEAD11348BF42F480726245A6
:1021000038BF634504D280EA010000F00040704708
:1021100010B500F01AF800BF8900013E00F007B8C2
:1021200000F009B85FEA410C5FEA1C6C08D080EA55
:10213000010000F050B85FEA400C5FEA1C6CF6D179
:102140004FF00040A0F5800070470EF1020E2EF017
:10215000030E5EF8044B244204D44FEA4102B2F16C
:102160007F4F11D84FEA4003B3F17F4F0CD80ED107
:102170004FEAD07CB2F17F4F0CEB4C0C0CF1020C0F
:1021800008BF4CEBD17C04E04FF0080C01E04FEAB3
:10219000D17C0CEB4C0324FA03F404F00704B4F1F3
:1021A000040C06D20EEB840CBDE810404CF0010C80
:1021B0006047DFE80CF0070802024FF00040A0F58E
:1021C000800010BD0846420018BFD2F1807288BF5F
:1021D00000F0004010BDFF2141EAD050C00570471B
:1021E00051EA000C00F113801CF5000F58BFBCF53C
:1021F000000F01D48142704707D711F5000F58BF77
:1022000010F5000F15D481427047894270471CF5C4
:10221000000F04D5BCF5000FF7D5884270474FF08A
:10222000807C1CEB410F38BF1CEB400F01D2884271
:10223000704780EA010081EA000180EA0100FFF7AF
:10224000F8BE000090EA010F48BF81F000413FF561
:1022500022AD421A04D882F00042A0EB02001144E1
:102260004FEAD0524FF07F4C1CEA410FA2EBD15302
:1022700018BF9CEA026F4AD04FF0004C4CEA002095
:102280004CEA012121FA03FCB0EB0C0C0FD412F044
:10229000FE0F36D05FEA4C001DD5001240EBC25055
:1022A00038BF70471CF03F0F18BF70470BE0A2F11A
:1022B00001025FEA1C2040EBC25038BF70471CF09F
:1022C0007F0F18BF7047C3F12003994014BF401E11
:1022D00020F00100704780084FEA122308BF7047C2
:1022E000B0FA80FCA2EB0C02CCF1280C60FA0CF0E6
:1022F00093EA122F04BF00EBC25070474FEAC3703D
:102300007047130A5FEADC1008BF7047F6E79CEAE3
:10231000026F04D010EA5C0F08BF0020704710B5B0
:10232000FFF713FF40DFF63E81F0004070470203E5
:102330000405060708090A0B0C0D0E0F1010010208
:102340000000000000000000010203040607080965
:1023500000000000010203047823000800000020B0
:102360004400000028010008BC23000844000020AD
:102370008C070000440100080000000000007A44BF
:102380000000C03FCDCCCC3D9A99993E0000003F63
:10239000000000000000000000000000000000003D
:1023A000000000000000000000000000000000002D
:0C23B00010000000010000000024F400F8
:04000005080000ED02
:00000001FF
